{
  "contractName": "IPFSImageStore",
  "abi": [
    {
      "inputs": [],
      "payable": false,
      "stateMutability": "nonpayable",
      "type": "constructor"
    },
    {
      "constant": false,
      "inputs": [
        {
          "internalType": "string",
          "name": "_cid",
          "type": "string"
        }
      ],
      "name": "set",
      "outputs": [],
      "payable": false,
      "stateMutability": "nonpayable",
      "type": "function"
    },
    {
      "constant": true,
      "inputs": [],
      "name": "get",
      "outputs": [
        {
          "internalType": "string[]",
          "name": "",
          "type": "string[]"
        }
      ],
      "payable": false,
      "stateMutability": "view",
      "type": "function"
    },
    {
      "constant": true,
      "inputs": [],
      "name": "getAll",
      "outputs": [
        {
          "internalType": "string[]",
          "name": "",
          "type": "string[]"
        }
      ],
      "payable": false,
      "stateMutability": "view",
      "type": "function"
    },
    {
      "constant": true,
      "inputs": [],
      "name": "getUser",
      "outputs": [
        {
          "components": [
            {
              "internalType": "string",
              "name": "name",
              "type": "string"
            },
            {
              "internalType": "string",
              "name": "lastname",
              "type": "string"
            },
            {
              "internalType": "string",
              "name": "username",
              "type": "string"
            },
            {
              "internalType": "uint256[]",
              "name": "indexs",
              "type": "uint256[]"
            }
          ],
          "internalType": "struct IPFSImageStore.User",
          "name": "",
          "type": "tuple"
        }
      ],
      "payable": false,
      "stateMutability": "view",
      "type": "function"
    },
    {
      "constant": false,
      "inputs": [
        {
          "internalType": "string",
          "name": "_name",
          "type": "string"
        },
        {
          "internalType": "string",
          "name": "_lastname",
          "type": "string"
        },
        {
          "internalType": "string",
          "name": "_username",
          "type": "string"
        }
      ],
      "name": "setUser",
      "outputs": [],
      "payable": false,
      "stateMutability": "nonpayable",
      "type": "function"
    }
  ],
  "bytecode": "0x608060405234801561001057600080fd5b506000600281905550610d89806100286000396000f3fe608060405234801561001057600080fd5b50600436106100575760003560e01c80634ed3885e1461005c57806353ed5143146100785780636b17b274146100965780636d4ce63c146100b2578063832880e7146100d0575b600080fd5b61007660048036036100719190810190610927565b6100ee565b005b6100806101b0565b60405161008d9190610bbe565b60405180910390f35b6100b060048036036100ab9190810190610968565b610299565b005b6100ba6103a3565b6040516100c79190610bbe565b60405180910390f35b6100d8610571565b6040516100e59190610be0565b60405180910390f35b600081908060018154018082558091505090600182039060005260206000200160009091929091909150908051906020019061012b929190610806565b5050600360003373ffffffffffffffffffffffffffffffffffffffff1673ffffffffffffffffffffffffffffffffffffffff168152602001908152602001600020600301600254908060018154018082558091505090600182039060005260206000200160009091929091909150555060026000815480929190600101919050555050565b60606000805480602002602001604051908101604052809291908181526020016000905b82821015610290578382906000526020600020018054600181600116156101000203166002900480601f01602080910402602001604051908101604052809291908181526020018280546001816001161561010002031660029004801561027c5780601f106102515761010080835404028352916020019161027c565b820191906000526020600020905b81548152906001019060200180831161025f57829003601f168201915b5050505050815260200190600101906101d4565b50505050905090565b82600360003373ffffffffffffffffffffffffffffffffffffffff1673ffffffffffffffffffffffffffffffffffffffff16815260200190815260200160002060000190805190602001906102ef929190610806565b5081600360003373ffffffffffffffffffffffffffffffffffffffff1673ffffffffffffffffffffffffffffffffffffffff1681526020019081526020016000206001019080519060200190610346929190610806565b5080600360003373ffffffffffffffffffffffffffffffffffffffff1673ffffffffffffffffffffffffffffffffffffffff168152602001908152602001600020600201908051906020019061039d929190610806565b50505050565b6060806002546040519080825280602002602001820160405280156103dc57816020015b60608152602001906001900390816103c75790505b5090506000600360003373ffffffffffffffffffffffffffffffffffffffff1673ffffffffffffffffffffffffffffffffffffffff168152602001908152602001600020600301805490509050600080600090505b8281101561056757600360003373ffffffffffffffffffffffffffffffffffffffff1673ffffffffffffffffffffffffffffffffffffffff168152602001908152602001600020600301818154811061048657fe5b90600052602060002001549150600082815481106104a057fe5b906000526020600020018054600181600116156101000203166002900480601f01602080910402602001604051908101604052809291908181526020018280546001816001161561010002031660029004801561053e5780601f106105135761010080835404028352916020019161053e565b820191906000526020600020905b81548152906001019060200180831161052157829003601f168201915b505050505084828151811061054f57fe5b60200260200101819052508080600101915050610431565b5082935050505090565b610579610886565b600360003373ffffffffffffffffffffffffffffffffffffffff1673ffffffffffffffffffffffffffffffffffffffff168152602001908152602001600020604051806080016040529081600082018054600181600116156101000203166002900480601f01602080910402602001604051908101604052809291908181526020018280546001816001161561010002031660029004801561065c5780601f106106315761010080835404028352916020019161065c565b820191906000526020600020905b81548152906001019060200180831161063f57829003601f168201915b50505050508152602001600182018054600181600116156101000203166002900480601f0160208091040260200160405190810160405280929190818152602001828054600181600116156101000203166002900480156106fe5780601f106106d3576101008083540402835291602001916106fe565b820191906000526020600020905b8154815290600101906020018083116106e157829003601f168201915b50505050508152602001600282018054600181600116156101000203166002900480601f0160208091040260200160405190810160405280929190818152602001828054600181600116156101000203166002900480156107a05780601f10610775576101008083540402835291602001916107a0565b820191906000526020600020905b81548152906001019060200180831161078357829003601f168201915b50505050508152602001600382018054806020026020016040519081016040528092919081815260200182805480156107f857602002820191906000526020600020905b8154815260200190600101908083116107e4575b505050505081525050905090565b828054600181600116156101000203166002900490600052602060002090601f016020900481019282601f1061084757805160ff1916838001178555610875565b82800160010185558215610875579182015b82811115610874578251825591602001919060010190610859565b5b50905061088291906108ae565b5090565b6040518060800160405280606081526020016060815260200160608152602001606081525090565b6108d091905b808211156108cc5760008160009055506001016108b4565b5090565b90565b600082601f8301126108e457600080fd5b81356108f76108f282610c2f565b610c02565b9150808252602083016020830185838301111561091357600080fd5b61091e838284610cf3565b50505092915050565b60006020828403121561093957600080fd5b600082013567ffffffffffffffff81111561095357600080fd5b61095f848285016108d3565b91505092915050565b60008060006060848603121561097d57600080fd5b600084013567ffffffffffffffff81111561099757600080fd5b6109a3868287016108d3565b935050602084013567ffffffffffffffff8111156109c057600080fd5b6109cc868287016108d3565b925050604084013567ffffffffffffffff8111156109e957600080fd5b6109f5868287016108d3565b9150509250925092565b6000610a0b8383610afe565b905092915050565b6000610a1f8383610baf565b60208301905092915050565b6000610a3682610c7b565b610a408185610cb6565b935083602082028501610a5285610c5b565b8060005b85811015610a8e5784840389528151610a6f85826109ff565b9450610a7a83610c9c565b925060208a01995050600181019050610a56565b50829750879550505050505092915050565b6000610aab82610c86565b610ab58185610cc7565b9350610ac083610c6b565b8060005b83811015610af1578151610ad88882610a13565b9750610ae383610ca9565b925050600181019050610ac4565b5085935050505092915050565b6000610b0982610c91565b610b138185610cd8565b9350610b23818560208601610d02565b610b2c81610d35565b840191505092915050565b60006080830160008301518482036000860152610b548282610afe565b91505060208301518482036020860152610b6e8282610afe565b91505060408301518482036040860152610b888282610afe565b91505060608301518482036060860152610ba28282610aa0565b9150508091505092915050565b610bb881610ce9565b82525050565b60006020820190508181036000830152610bd88184610a2b565b905092915050565b60006020820190508181036000830152610bfa8184610b37565b905092915050565b6000604051905081810181811067ffffffffffffffff82111715610c2557600080fd5b8060405250919050565b600067ffffffffffffffff821115610c4657600080fd5b601f19601f8301169050602081019050919050565b6000819050602082019050919050565b6000819050602082019050919050565b600081519050919050565b600081519050919050565b600081519050919050565b6000602082019050919050565b6000602082019050919050565b600082825260208201905092915050565b600082825260208201905092915050565b600082825260208201905092915050565b6000819050919050565b82818337600083830152505050565b60005b83811015610d20578082015181840152602081019050610d05565b83811115610d2f576000848401525b50505050565b6000601f19601f830116905091905056fea365627a7a7231582075f8526482b35a58182783bad59ca3884976ea27bb982a7edf3dfab8d96840b56c6578706572696d656e74616cf564736f6c63430005100040",
  "source": "// SPDX-License-Identifier: MIT\r\npragma experimental ABIEncoderV2;\r\n\r\ncontract IPFSImageStore {\r\n\r\n  string[] allImages;\r\n  Report[] reports;\r\n  uint idx;\r\n\r\n  struct Report{\r\n    string original_cid;\r\n    string reported_cid;\r\n    int votes;\r\n  }\r\n\r\n  struct User {\r\n    string name;\r\n    string lastname;\r\n    string username;\r\n    uint[] indexs;\r\n  }\r\n\r\n  mapping(address => User) users;\r\n\r\n  mapping(string => int) report;\r\n\r\n  constructor() public {\r\n    idx = 0;\r\n  }\r\n\r\n  function set(string memory _cid) public {\r\n    allImages.push(_cid);\r\n    users[msg.sender].indexs.push(idx);\r\n    idx++;\r\n  }\r\n\r\n  function get() public view returns (string[] memory){\r\n    string[] memory temp = new string[](idx);\r\n    uint idxLength = users[msg.sender].indexs.length;\r\n    uint mem;\r\n    for(uint i = 0; i < idxLength; i++){\r\n      mem = users[msg.sender].indexs[i];\r\n      temp[i] = allImages[mem];\r\n    }\r\n    return temp;\r\n  }\r\n\r\n  function getAll() public view returns (string[] memory) {\r\n    return allImages;\r\n  }\r\n\r\n  function getUser() public view returns (User memory){\r\n    return users[msg.sender];\r\n  }\r\n\r\n  function setUser(string memory _name, string memory _lastname, string memory _username) public {\r\n    users[msg.sender].name = _name;\r\n    users[msg.sender].lastname = _lastname;\r\n    users[msg.sender].username = _username;\r\n  }\r\n}\r\n",
  "sourcePath": "C:/Users/Adnan/Desktop/IPFS/PixelChain/contracts/IPFSImageStore.sol",
  "compiler": {
    "name": "solc",
    "version": "0.5.16+commit.9c3226ce.Emscripten.clang"
  },
  "schemaVersion": "3.3.3",
  "updatedAt": "2021-01-22T17:10:50.473Z",
  "networkType": "ethereum",
  "devdoc": {
    "methods": {}
  },
  "userdoc": {
    "methods": {}
  }
}