{
  "contractName": "IPFSImageStore",
  "abi": [
    {
      "inputs": [],
      "payable": false,
      "stateMutability": "nonpayable",
      "type": "constructor"
    },
    {
      "constant": false,
      "inputs": [
        {
          "internalType": "string",
          "name": "_cid",
          "type": "string"
        }
      ],
      "name": "set",
      "outputs": [],
      "payable": false,
      "stateMutability": "nonpayable",
      "type": "function"
    },
    {
      "constant": true,
      "inputs": [],
      "name": "get",
      "outputs": [
        {
          "internalType": "string[]",
          "name": "",
          "type": "string[]"
        }
      ],
      "payable": false,
      "stateMutability": "view",
      "type": "function"
    },
    {
      "constant": true,
      "inputs": [],
      "name": "getUser",
      "outputs": [
        {
          "components": [
            {
              "internalType": "string",
              "name": "name",
              "type": "string"
            },
            {
              "internalType": "string",
              "name": "lastname",
              "type": "string"
            },
            {
              "internalType": "string",
              "name": "username",
              "type": "string"
            }
          ],
          "internalType": "struct IPFSImageStore.User",
          "name": "",
          "type": "tuple"
        }
      ],
      "payable": false,
      "stateMutability": "view",
      "type": "function"
    },
    {
      "constant": false,
      "inputs": [
        {
          "internalType": "string",
          "name": "_name",
          "type": "string"
        },
        {
          "internalType": "string",
          "name": "_lastname",
          "type": "string"
        },
        {
          "internalType": "string",
          "name": "_username",
          "type": "string"
        }
      ],
      "name": "setUser",
      "outputs": [],
      "payable": false,
      "stateMutability": "nonpayable",
      "type": "function"
    }
  ],
  "bytecode": "0x608060405234801561001057600080fd5b50610a78806100206000396000f3fe608060405234801561001057600080fd5b506004361061004c5760003560e01c80634ed3885e146100515780636b17b2741461006d5780636d4ce63c14610089578063832880e7146100a7575b600080fd5b61006b600480360361006691908101906106f8565b6100c5565b005b61008760048036036100829190810190610739565b610143565b005b6100916101fc565b60405161009e91906108f0565b60405180910390f35b6100af610321565b6040516100bc9190610912565b60405180910390f35b6000803373ffffffffffffffffffffffffffffffffffffffff1673ffffffffffffffffffffffffffffffffffffffff16815260200190815260200160002081908060018154018082558091505090600182039060005260206000200160009091929091909150908051906020019061013e92919061055e565b505050565b604051806060016040528084815260200183815260200182815250600160003373ffffffffffffffffffffffffffffffffffffffff1673ffffffffffffffffffffffffffffffffffffffff16815260200190815260200160002060008201518160000190805190602001906101b99291906105de565b5060208201518160010190805190602001906101d69291906105de565b5060408201518160020190805190602001906101f39291906105de565b50905050505050565b60606000803373ffffffffffffffffffffffffffffffffffffffff1673ffffffffffffffffffffffffffffffffffffffff168152602001908152602001600020805480602002602001604051908101604052809291908181526020016000905b82821015610318578382906000526020600020018054600181600116156101000203166002900480601f0160208091040260200160405190810160405280929190818152602001828054600181600116156101000203166002900480156103045780601f106102d957610100808354040283529160200191610304565b820191906000526020600020905b8154815290600101906020018083116102e757829003601f168201915b50505050508152602001906001019061025c565b50505050905090565b61032961065e565b600160003373ffffffffffffffffffffffffffffffffffffffff1673ffffffffffffffffffffffffffffffffffffffff168152602001908152602001600020604051806060016040529081600082018054600181600116156101000203166002900480601f01602080910402602001604051908101604052809291908181526020018280546001816001161561010002031660029004801561040c5780601f106103e15761010080835404028352916020019161040c565b820191906000526020600020905b8154815290600101906020018083116103ef57829003601f168201915b50505050508152602001600182018054600181600116156101000203166002900480601f0160208091040260200160405190810160405280929190818152602001828054600181600116156101000203166002900480156104ae5780601f10610483576101008083540402835291602001916104ae565b820191906000526020600020905b81548152906001019060200180831161049157829003601f168201915b50505050508152602001600282018054600181600116156101000203166002900480601f0160208091040260200160405190810160405280929190818152602001828054600181600116156101000203166002900480156105505780601f1061052557610100808354040283529160200191610550565b820191906000526020600020905b81548152906001019060200180831161053357829003601f168201915b505050505081525050905090565b828054600181600116156101000203166002900490600052602060002090601f016020900481019282601f1061059f57805160ff19168380011785556105cd565b828001600101855582156105cd579182015b828111156105cc5782518255916020019190600101906105b1565b5b5090506105da919061067f565b5090565b828054600181600116156101000203166002900490600052602060002090601f016020900481019282601f1061061f57805160ff191683800117855561064d565b8280016001018555821561064d579182015b8281111561064c578251825591602001919060010190610631565b5b50905061065a919061067f565b5090565b60405180606001604052806060815260200160608152602001606081525090565b6106a191905b8082111561069d576000816000905550600101610685565b5090565b90565b600082601f8301126106b557600080fd5b81356106c86106c382610961565b610934565b915080825260208301602083018583830111156106e457600080fd5b6106ef8382846109e2565b50505092915050565b60006020828403121561070a57600080fd5b600082013567ffffffffffffffff81111561072457600080fd5b610730848285016106a4565b91505092915050565b60008060006060848603121561074e57600080fd5b600084013567ffffffffffffffff81111561076857600080fd5b610774868287016106a4565b935050602084013567ffffffffffffffff81111561079157600080fd5b61079d868287016106a4565b925050604084013567ffffffffffffffff8111156107ba57600080fd5b6107c6868287016106a4565b9150509250925092565b60006107dc8383610859565b905092915050565b60006107ef8261099d565b6107f981856109c0565b93508360208202850161080b8561098d565b8060005b85811015610847578484038952815161082885826107d0565b9450610833836109b3565b925060208a0199505060018101905061080f565b50829750879550505050505092915050565b6000610864826109a8565b61086e81856109d1565b935061087e8185602086016109f1565b61088781610a24565b840191505092915050565b600060608301600083015184820360008601526108af8282610859565b915050602083015184820360208601526108c98282610859565b915050604083015184820360408601526108e38282610859565b9150508091505092915050565b6000602082019050818103600083015261090a81846107e4565b905092915050565b6000602082019050818103600083015261092c8184610892565b905092915050565b6000604051905081810181811067ffffffffffffffff8211171561095757600080fd5b8060405250919050565b600067ffffffffffffffff82111561097857600080fd5b601f19601f8301169050602081019050919050565b6000819050602082019050919050565b600081519050919050565b600081519050919050565b6000602082019050919050565b600082825260208201905092915050565b600082825260208201905092915050565b82818337600083830152505050565b60005b83811015610a0f5780820151818401526020810190506109f4565b83811115610a1e576000848401525b50505050565b6000601f19601f830116905091905056fea365627a7a72315820a2e24a1a2810a2138d77b3ba199c5d9807a4d959a1728c520a6642f4b8a251aa6c6578706572696d656e74616cf564736f6c63430005100040",
  "source": "// SPDX-License-Identifier: MIT\npragma experimental ABIEncoderV2;\n\ncontract IPFSImageStore {\n  struct User {\n    string name;\n    string lastname;\n    string username;\n  }\n  mapping(address => string[]) images;\n  mapping(address => User) users;\n\n  constructor() public {\n  }\n\n  function set(string memory _cid) public {\n    images[msg.sender].push(_cid);\n  }\n\n  function get() public view returns (string[] memory){\n    return images[msg.sender];\n  }\n\n  function getUser() public view returns (User memory){\n    return users[msg.sender];\n  }\n\n  function setUser(string memory _name, string memory _lastname, string memory _username) public {\n    users[msg.sender] = User(_name, _lastname, _username);\n  }\n}\n",
  "sourcePath": "C:/Users/Adnan/Desktop/PixelChain/pixelchain/contracts/IPFSImageStore.sol",
  "compiler": {
    "name": "solc",
    "version": "0.5.16+commit.9c3226ce.Emscripten.clang"
  },
  "schemaVersion": "3.3.3",
  "updatedAt": "2021-01-21T21:20:19.217Z",
  "networkType": "ethereum",
  "devdoc": {
    "methods": {}
  },
  "userdoc": {
    "methods": {}
  }
}