{
  "contractName": "IPFSImageStore",
  "abi": [
    {
      "inputs": [],
      "payable": false,
      "stateMutability": "nonpayable",
      "type": "constructor"
    },
    {
      "constant": false,
      "inputs": [
        {
          "internalType": "string",
          "name": "_original",
          "type": "string"
        },
        {
          "internalType": "string",
          "name": "_reported",
          "type": "string"
        },
        {
          "internalType": "string",
          "name": "_description",
          "type": "string"
        }
      ],
      "name": "addReport",
      "outputs": [],
      "payable": false,
      "stateMutability": "nonpayable",
      "type": "function"
    },
    {
      "constant": true,
      "inputs": [],
      "name": "getReports",
      "outputs": [
        {
          "components": [
            {
              "internalType": "uint256",
              "name": "ID",
              "type": "uint256"
            },
            {
              "internalType": "string",
              "name": "original_cid",
              "type": "string"
            },
            {
              "internalType": "string",
              "name": "reported_cid",
              "type": "string"
            },
            {
              "internalType": "string",
              "name": "Description",
              "type": "string"
            },
            {
              "internalType": "uint256",
              "name": "startDate",
              "type": "uint256"
            },
            {
              "internalType": "uint256",
              "name": "endDate",
              "type": "uint256"
            },
            {
              "internalType": "int256",
              "name": "votes",
              "type": "int256"
            }
          ],
          "internalType": "struct IPFSImageStore.Report[]",
          "name": "",
          "type": "tuple[]"
        }
      ],
      "payable": false,
      "stateMutability": "view",
      "type": "function"
    },
    {
      "constant": true,
      "inputs": [
        {
          "internalType": "uint256",
          "name": "_id",
          "type": "uint256"
        }
      ],
      "name": "checkVoter",
      "outputs": [
        {
          "internalType": "bool",
          "name": "",
          "type": "bool"
        }
      ],
      "payable": false,
      "stateMutability": "view",
      "type": "function"
    },
    {
      "constant": false,
      "inputs": [
        {
          "internalType": "uint256",
          "name": "_id",
          "type": "uint256"
        },
        {
          "internalType": "bool",
          "name": "vote",
          "type": "bool"
        }
      ],
      "name": "voteReport",
      "outputs": [],
      "payable": false,
      "stateMutability": "nonpayable",
      "type": "function"
    },
    {
      "constant": true,
      "inputs": [
        {
          "internalType": "string",
          "name": "_cid",
          "type": "string"
        }
      ],
      "name": "checkImage",
      "outputs": [
        {
          "internalType": "bool",
          "name": "",
          "type": "bool"
        }
      ],
      "payable": false,
      "stateMutability": "view",
      "type": "function"
    },
    {
      "constant": false,
      "inputs": [
        {
          "internalType": "string",
          "name": "_cid",
          "type": "string"
        },
        {
          "internalType": "string",
          "name": "_author",
          "type": "string"
        },
        {
          "internalType": "string",
          "name": "_description",
          "type": "string"
        }
      ],
      "name": "set",
      "outputs": [
        {
          "internalType": "bool",
          "name": "",
          "type": "bool"
        }
      ],
      "payable": false,
      "stateMutability": "nonpayable",
      "type": "function"
    },
    {
      "constant": true,
      "inputs": [],
      "name": "get",
      "outputs": [
        {
          "components": [
            {
              "internalType": "string",
              "name": "cid",
              "type": "string"
            },
            {
              "internalType": "string",
              "name": "author",
              "type": "string"
            },
            {
              "internalType": "string",
              "name": "description",
              "type": "string"
            },
            {
              "internalType": "uint256",
              "name": "timestamp",
              "type": "uint256"
            }
          ],
          "internalType": "struct IPFSImageStore.Image[]",
          "name": "",
          "type": "tuple[]"
        }
      ],
      "payable": false,
      "stateMutability": "view",
      "type": "function"
    },
    {
      "constant": true,
      "inputs": [],
      "name": "getAllImages",
      "outputs": [
        {
          "components": [
            {
              "internalType": "string",
              "name": "cid",
              "type": "string"
            },
            {
              "internalType": "string",
              "name": "author",
              "type": "string"
            },
            {
              "internalType": "string",
              "name": "description",
              "type": "string"
            },
            {
              "internalType": "uint256",
              "name": "timestamp",
              "type": "uint256"
            }
          ],
          "internalType": "struct IPFSImageStore.Image[]",
          "name": "",
          "type": "tuple[]"
        }
      ],
      "payable": false,
      "stateMutability": "view",
      "type": "function"
    },
    {
      "constant": true,
      "inputs": [],
      "name": "getUser",
      "outputs": [
        {
          "components": [
            {
              "internalType": "string",
              "name": "name",
              "type": "string"
            },
            {
              "internalType": "string",
              "name": "lastname",
              "type": "string"
            },
            {
              "internalType": "string",
              "name": "username",
              "type": "string"
            },
            {
              "internalType": "uint256[]",
              "name": "indexs",
              "type": "uint256[]"
            },
            {
              "internalType": "uint256[]",
              "name": "votedReports",
              "type": "uint256[]"
            }
          ],
          "internalType": "struct IPFSImageStore.User",
          "name": "",
          "type": "tuple"
        }
      ],
      "payable": false,
      "stateMutability": "view",
      "type": "function"
    },
    {
      "constant": false,
      "inputs": [
        {
          "internalType": "string",
          "name": "_name",
          "type": "string"
        },
        {
          "internalType": "string",
          "name": "_lastname",
          "type": "string"
        },
        {
          "internalType": "string",
          "name": "_username",
          "type": "string"
        }
      ],
      "name": "setUser",
      "outputs": [],
      "payable": false,
      "stateMutability": "nonpayable",
      "type": "function"
    }
  ],
  "bytecode": "0x608060405234801561001057600080fd5b5060006002819055506000600381905550612053806100306000396000f3fe608060405234801561001057600080fd5b506004361061009e5760003560e01c8063832880e711610066578063832880e714610147578063a3c86daf14610165578063a7a17ad214610183578063da465d741461019f578063f822d304146101cf5761009e565b80634a80d50e146100a35780636b17b274146100d35780636bbdb899146100ef5780636d4ce63c1461010b5780637b7284fc14610129575b600080fd5b6100bd60048036036100b891908101906119ce565b6101ff565b6040516100ca9190611e12565b60405180910390f35b6100ed60048036036100e89190810190611937565b6102dc565b005b61010960048036036101049190810190611937565b6103e6565b005b610113610555565b6040516101209190611dce565b60405180910390f35b61013161088f565b60405161013e9190611dce565b60405180910390f35b61014f610ade565b60405161015c9190611e2d565b60405180910390f35b61016d610dcb565b60405161017a9190611df0565b60405180910390f35b61019d600480360361019891908101906119f7565b611038565b005b6101b960048036036101b49190810190611937565b6111a0565b6040516101c69190611e12565b60405180910390f35b6101e960048036036101e491908101906118f6565b6112da565b6040516101f69190611e12565b60405180910390f35b600080600090505b600460003373ffffffffffffffffffffffffffffffffffffffff1673ffffffffffffffffffffffffffffffffffffffff168152602001908152602001600020600401805490508110156102d1576000600460003373ffffffffffffffffffffffffffffffffffffffff1673ffffffffffffffffffffffffffffffffffffffff16815260200190815260200160002060040182815481106102a357fe5b90600052602060002001549050838114156102c3576000925050506102d7565b508080600101915050610207565b50600190505b919050565b82600460003373ffffffffffffffffffffffffffffffffffffffff1673ffffffffffffffffffffffffffffffffffffffff16815260200190815260200160002060000190805190602001906103329291906116b4565b5081600460003373ffffffffffffffffffffffffffffffffffffffff1673ffffffffffffffffffffffffffffffffffffffff16815260200190815260200160002060010190805190602001906103899291906116b4565b5080600460003373ffffffffffffffffffffffffffffffffffffffff1673ffffffffffffffffffffffffffffffffffffffff16815260200190815260200160002060020190805190602001906103e09291906116b4565b50505050565b60016040518060e00160405280600354815260200185815260200184815260200183815260200142815260200162278d0042018152602001600181525090806001815401808255809150509060018203906000526020600020906007020160009091929091909150600082015181600001556020820151816001019080519060200190610474929190611734565b506040820151816002019080519060200190610491929190611734565b5060608201518160030190805190602001906104ae929190611734565b506080820151816004015560a0820151816005015560c08201518160060155505050600460003373ffffffffffffffffffffffffffffffffffffffff1673ffffffffffffffffffffffffffffffffffffffff1681526020019081526020016000206004016003549080600181540180825580915050906001820390600052602060002001600090919290919091505550600360008154809291906001019190505550505050565b60608060025460405190808252806020026020018201604052801561059457816020015b6105816117b4565b8152602001906001900390816105795790505b5090506000600460003373ffffffffffffffffffffffffffffffffffffffff1673ffffffffffffffffffffffffffffffffffffffff168152602001908152602001600020600301805490509050600080600090505b8281101561088557600460003373ffffffffffffffffffffffffffffffffffffffff1673ffffffffffffffffffffffffffffffffffffffff168152602001908152602001600020600301818154811061063e57fe5b906000526020600020015491506000828154811061065857fe5b9060005260206000209060040201604051806080016040529081600082018054600181600116156101000203166002900480601f01602080910402602001604051908101604052809291908181526020018280546001816001161561010002031660029004801561070a5780601f106106df5761010080835404028352916020019161070a565b820191906000526020600020905b8154815290600101906020018083116106ed57829003601f168201915b50505050508152602001600182018054600181600116156101000203166002900480601f0160208091040260200160405190810160405280929190818152602001828054600181600116156101000203166002900480156107ac5780601f10610781576101008083540402835291602001916107ac565b820191906000526020600020905b81548152906001019060200180831161078f57829003601f168201915b50505050508152602001600282018054600181600116156101000203166002900480601f01602080910402602001604051908101604052809291908181526020018280546001816001161561010002031660029004801561084e5780601f106108235761010080835404028352916020019161084e565b820191906000526020600020905b81548152906001019060200180831161083157829003601f168201915b5050505050815260200160038201548152505084828151811061086d57fe5b602002602001018190525080806001019150506105e9565b5082935050505090565b60606000805480602002602001604051908101604052809291908181526020016000905b82821015610ad55783829060005260206000209060040201604051806080016040529081600082018054600181600116156101000203166002900480601f01602080910402602001604051908101604052809291908181526020018280546001816001161561010002031660029004801561096f5780601f106109445761010080835404028352916020019161096f565b820191906000526020600020905b81548152906001019060200180831161095257829003601f168201915b50505050508152602001600182018054600181600116156101000203166002900480601f016020809104026020016040519081016040528092919081815260200182805460018160011615610100020316600290048015610a115780601f106109e657610100808354040283529160200191610a11565b820191906000526020600020905b8154815290600101906020018083116109f457829003601f168201915b50505050508152602001600282018054600181600116156101000203166002900480601f016020809104026020016040519081016040528092919081815260200182805460018160011615610100020316600290048015610ab35780601f10610a8857610100808354040283529160200191610ab3565b820191906000526020600020905b815481529060010190602001808311610a9657829003601f168201915b50505050508152602001600382015481525050815260200190600101906108b3565b50505050905090565b610ae66117dc565b600460003373ffffffffffffffffffffffffffffffffffffffff1673ffffffffffffffffffffffffffffffffffffffff1681526020019081526020016000206040518060a0016040529081600082018054600181600116156101000203166002900480601f016020809104026020016040519081016040528092919081815260200182805460018160011615610100020316600290048015610bc95780601f10610b9e57610100808354040283529160200191610bc9565b820191906000526020600020905b815481529060010190602001808311610bac57829003601f168201915b50505050508152602001600182018054600181600116156101000203166002900480601f016020809104026020016040519081016040528092919081815260200182805460018160011615610100020316600290048015610c6b5780601f10610c4057610100808354040283529160200191610c6b565b820191906000526020600020905b815481529060010190602001808311610c4e57829003601f168201915b50505050508152602001600282018054600181600116156101000203166002900480601f016020809104026020016040519081016040528092919081815260200182805460018160011615610100020316600290048015610d0d5780601f10610ce257610100808354040283529160200191610d0d565b820191906000526020600020905b815481529060010190602001808311610cf057829003601f168201915b5050505050815260200160038201805480602002602001604051908101604052809291908181526020018280548015610d6557602002820191906000526020600020905b815481526020019060010190808311610d51575b5050505050815260200160048201805480602002602001604051908101604052809291908181526020018280548015610dbd57602002820191906000526020600020905b815481526020019060010190808311610da9575b505050505081525050905090565b60606001805480602002602001604051908101604052809291908181526020016000905b8282101561102f57838290600052602060002090600702016040518060e001604052908160008201548152602001600182018054600181600116156101000203166002900480601f016020809104026020016040519081016040528092919081815260200182805460018160011615610100020316600290048015610eb55780601f10610e8a57610100808354040283529160200191610eb5565b820191906000526020600020905b815481529060010190602001808311610e9857829003601f168201915b50505050508152602001600282018054600181600116156101000203166002900480601f016020809104026020016040519081016040528092919081815260200182805460018160011615610100020316600290048015610f575780601f10610f2c57610100808354040283529160200191610f57565b820191906000526020600020905b815481529060010190602001808311610f3a57829003601f168201915b50505050508152602001600382018054600181600116156101000203166002900480601f016020809104026020016040519081016040528092919081815260200182805460018160011615610100020316600290048015610ff95780601f10610fce57610100808354040283529160200191610ff9565b820191906000526020600020905b815481529060010190602001808311610fdc57829003601f168201915b50505050508152602001600482015481526020016005820154815260200160068201548152505081526020019060010190610def565b50505050905090565b611041826101ff565b61104a5761119c565b80156110f7576001828154811061105d57fe5b906000526020600020906007020160060160008154809291906001019190505550600460003373ffffffffffffffffffffffffffffffffffffffff1673ffffffffffffffffffffffffffffffffffffffff1681526020019081526020016000206004018290806001815401808255809150509060018203906000526020600020016000909192909190915055506110f26113e1565b61119b565b6001828154811061110457fe5b90600052602060002090600702016006016000815480929190600190039190505550600460003373ffffffffffffffffffffffffffffffffffffffff1673ffffffffffffffffffffffffffffffffffffffff16815260200190815260200160002060040182908060018154018082558091505090600182039060005260206000200160009091929091909150555061119a6113e1565b5b5b5050565b60008060405180608001604052808681526020018581526020018481526020014281525090806001815401808255809150509060018203906000526020600020906004020160009091929091909150600082015181600001908051906020019061120b929190611734565b506020820151816001019080519060200190611228929190611734565b506040820151816002019080519060200190611245929190611734565b5060608201518160030155505050600460003373ffffffffffffffffffffffffffffffffffffffff1673ffffffffffffffffffffffffffffffffffffffff16815260200190815260200160002060030160025490806001815401808255809150509060018203906000526020600020016000909192909190915055506002600081548092919060010191905055509392505050565b6000606060008090505b6002548110156113d557600081815481106112fb57fe5b90600052602060002090600402016000018054600181600116156101000203166002900480601f0160208091040260200160405190810160405280929190818152602001828054600181600116156101000203166002900480156113a05780601f10611375576101008083540402835291602001916113a0565b820191906000526020600020905b81548152906001019060200180831161138357829003601f168201915b505050505091508380519060200120828051906020012014156113c8576000925050506113dc565b80806001019150506112e4565b5060019150505b919050565b60008090505b6001805490508110156115555760026001828154811061140357fe5b90600052602060002090600702016006015412611548576114d96001828154811061142a57fe5b90600052602060002090600702016002018054600181600116156101000203166002900480601f0160208091040260200160405190810160405280929190818152602001828054600181600116156101000203166002900480156114cf5780601f106114a4576101008083540402835291602001916114cf565b820191906000526020600020905b8154815290600101906020018083116114b257829003601f168201915b5050505050611558565b600181815481106114e657fe5b906000526020600020906007020160008082016000905560018201600061150d919061180b565b60028201600061151d919061180b565b60038201600061152d919061180b565b60048201600090556005820160009055600682016000905550505b80806001019150506113e7565b50565b606060008090505b6002548110156116af576000818154811061157757fe5b90600052602060002090600402016000018054600181600116156101000203166002900480601f01602080910402602001604051908101604052809291908181526020018280546001816001161561010002031660029004801561161c5780601f106115f15761010080835404028352916020019161161c565b820191906000526020600020905b8154815290600101906020018083116115ff57829003601f168201915b505050505091508280519060200120828051906020012014156116a2576040518060400160405280600981526020017f436f7079526967687400000000000000000000000000000000000000000000008152506000828154811061167c57fe5b906000526020600020906004020160000190805190602001906116a09291906116b4565b505b8080600101915050611560565b505050565b828054600181600116156101000203166002900490600052602060002090601f016020900481019282601f106116f557805160ff1916838001178555611723565b82800160010185558215611723579182015b82811115611722578251825591602001919060010190611707565b5b5090506117309190611853565b5090565b828054600181600116156101000203166002900490600052602060002090601f016020900481019282601f1061177557805160ff19168380011785556117a3565b828001600101855582156117a3579182015b828111156117a2578251825591602001919060010190611787565b5b5090506117b09190611853565b5090565b6040518060800160405280606081526020016060815260200160608152602001600081525090565b6040518060a0016040528060608152602001606081526020016060815260200160608152602001606081525090565b50805460018160011615610100020316600290046000825580601f106118315750611850565b601f01602090049060005260206000209081019061184f9190611853565b5b50565b61187591905b80821115611871576000816000905550600101611859565b5090565b90565b60008135905061188781611fe2565b92915050565b600082601f83011261189e57600080fd5b81356118b16118ac82611e7c565b611e4f565b915080825260208301602083018583830111156118cd57600080fd5b6118d8838284611f8f565b50505092915050565b6000813590506118f081611ff9565b92915050565b60006020828403121561190857600080fd5b600082013567ffffffffffffffff81111561192257600080fd5b61192e8482850161188d565b91505092915050565b60008060006060848603121561194c57600080fd5b600084013567ffffffffffffffff81111561196657600080fd5b6119728682870161188d565b935050602084013567ffffffffffffffff81111561198f57600080fd5b61199b8682870161188d565b925050604084013567ffffffffffffffff8111156119b857600080fd5b6119c48682870161188d565b9150509250925092565b6000602082840312156119e057600080fd5b60006119ee848285016118e1565b91505092915050565b60008060408385031215611a0a57600080fd5b6000611a18858286016118e1565b9250506020611a2985828601611878565b9150509250929050565b6000611a3f8383611c12565b905092915050565b6000611a538383611c83565b905092915050565b6000611a678383611dbf565b60208301905092915050565b6000611a7e82611ed8565b611a888185611f2b565b935083602082028501611a9a85611ea8565b8060005b85811015611ad65784840389528151611ab78582611a33565b9450611ac283611f04565b925060208a01995050600181019050611a9e565b50829750879550505050505092915050565b6000611af382611ee3565b611afd8185611f3c565b935083602082028501611b0f85611eb8565b8060005b85811015611b4b5784840389528151611b2c8582611a47565b9450611b3783611f11565b925060208a01995050600181019050611b13565b50829750879550505050505092915050565b6000611b6882611eee565b611b728185611f4d565b9350611b7d83611ec8565b8060005b83811015611bae578151611b958882611a5b565b9750611ba083611f1e565b925050600181019050611b81565b5085935050505092915050565b611bc481611f6f565b82525050565b611bd381611f7b565b82525050565b6000611be482611ef9565b611bee8185611f5e565b9350611bfe818560208601611f9e565b611c0781611fd1565b840191505092915050565b60006080830160008301518482036000860152611c2f8282611bd9565b91505060208301518482036020860152611c498282611bd9565b91505060408301518482036040860152611c638282611bd9565b9150506060830151611c786060860182611dbf565b508091505092915050565b600060e083016000830151611c9b6000860182611dbf565b5060208301518482036020860152611cb38282611bd9565b91505060408301518482036040860152611ccd8282611bd9565b91505060608301518482036060860152611ce78282611bd9565b9150506080830151611cfc6080860182611dbf565b5060a0830151611d0f60a0860182611dbf565b5060c0830151611d2260c0860182611bca565b508091505092915050565b600060a0830160008301518482036000860152611d4a8282611bd9565b91505060208301518482036020860152611d648282611bd9565b91505060408301518482036040860152611d7e8282611bd9565b91505060608301518482036060860152611d988282611b5d565b91505060808301518482036080860152611db28282611b5d565b9150508091505092915050565b611dc881611f85565b82525050565b60006020820190508181036000830152611de88184611a73565b905092915050565b60006020820190508181036000830152611e0a8184611ae8565b905092915050565b6000602082019050611e276000830184611bbb565b92915050565b60006020820190508181036000830152611e478184611d2d565b905092915050565b6000604051905081810181811067ffffffffffffffff82111715611e7257600080fd5b8060405250919050565b600067ffffffffffffffff821115611e9357600080fd5b601f19601f8301169050602081019050919050565b6000819050602082019050919050565b6000819050602082019050919050565b6000819050602082019050919050565b600081519050919050565b600081519050919050565b600081519050919050565b600081519050919050565b6000602082019050919050565b6000602082019050919050565b6000602082019050919050565b600082825260208201905092915050565b600082825260208201905092915050565b600082825260208201905092915050565b600082825260208201905092915050565b60008115159050919050565b6000819050919050565b6000819050919050565b82818337600083830152505050565b60005b83811015611fbc578082015181840152602081019050611fa1565b83811115611fcb576000848401525b50505050565b6000601f19601f8301169050919050565b611feb81611f6f565b8114611ff657600080fd5b50565b61200281611f85565b811461200d57600080fd5b5056fea365627a7a72315820e8a26c25aceefc866e4d247b7cffaf33ae496fe4fe6357bc9634c002b379711e6c6578706572696d656e74616cf564736f6c63430005100040",
  "source": "// SPDX-License-Identifier: MIT\r\npragma experimental ABIEncoderV2;\r\n\r\ncontract IPFSImageStore {\r\n\r\n  Image[] allImages;\r\n  Report[] reports;\r\n  uint idx;\r\n  uint reportId;\r\n\r\nstruct Image{\r\n    string cid;\r\n    string\tauthor;\r\n\t  string description;\r\n\t  uint timestamp;\r\n}\r\n\r\nstruct Report{\r\n    uint ID;\r\n    string original_cid;\r\n    string reported_cid;\r\n    string Description;\r\n    uint startDate;\r\n    uint endDate;\r\n    int votes;\r\n  }\r\n\r\n  struct User {\r\n    string name;\r\n    string lastname;\r\n    string username;\r\n    uint[] indexs;\r\n    uint[] votedReports;\r\n  }\r\n\r\n  mapping(address => User) users;\r\n\r\n  constructor() public {\r\n    idx = 0;\r\n    reportId = 0;\r\n  }\r\n\r\n  function addReport(string memory _original, string memory _reported, string memory _description) public {\r\n    reports.push(Report(reportId, _original, _reported, _description, block.timestamp, block.timestamp + 2592000, 1));\r\n    users[msg.sender].votedReports.push(reportId);\r\n    reportId++;\r\n  }\r\n  \r\n  function getReports() public view returns(Report[] memory) {\r\n      return reports;\r\n  }\r\n\r\n  function checkVoter(uint _id) public view returns(bool) {\r\n      for(uint i = 0; i < users[msg.sender].votedReports.length; i++){\r\n          uint id = users[msg.sender].votedReports[i];\r\n          if(id == _id){\r\n              return false;\r\n          }\r\n      }\r\n      return true;\r\n  }\r\n  \r\n  function voteReport(uint _id, bool vote) public {\r\n      if(!checkVoter(_id)) return;\r\n      if(vote){\r\n          reports[_id].votes++;\r\n          users[msg.sender].votedReports.push(_id);\r\n          checkReports();\r\n      }else{\r\n          reports[_id].votes--;\r\n          users[msg.sender].votedReports.push(_id);\r\n          checkReports();\r\n      } \r\n  }\r\n\r\n  function checkReports() private {\r\n    for(uint i = 0; i < reports.length;i++){\r\n      if(reports[i].votes >= 2){\r\n        deleteImage(reports[i].reported_cid);\r\n        delete reports[i];\r\n      }\r\n    }\r\n  }\r\n  \r\n  \r\n  function deleteImage(string memory _cid) private{\r\n    string memory mem;\r\n    for(uint i = 0; i < idx; i++){\r\n      mem = allImages[i].cid;\r\n      if(keccak256(bytes(mem)) == keccak256(bytes(_cid))){\r\n        allImages[i].cid = \"CopyRight\";\r\n      }\r\n    }\r\n  }\r\n  \r\n  function checkImage(string memory _cid) public view returns(bool){\r\n      string memory mem;\r\n      for(uint i = 0; i < idx;i++){\r\n        mem = allImages[i].cid;\r\n        if(keccak256(bytes(mem)) == keccak256(bytes(_cid))){\r\n            return false;\r\n        }\r\n      }\r\n      return true;\r\n  }\r\n\r\n  function set(string memory _cid, string memory _author, string memory _description) public returns(bool){\r\n    allImages.push(Image(_cid, _author, _description, block.timestamp));\r\n    users[msg.sender].indexs.push(idx);\r\n    idx++;\r\n  }\r\n\r\n  function get() public view returns (Image[] memory){\r\n    Image[] memory temp = new Image[](idx);\r\n    uint idxLength = users[msg.sender].indexs.length;\r\n    uint mem;\r\n    for(uint i = 0; i < idxLength; i++){\r\n      mem = users[msg.sender].indexs[i];\r\n      temp[i] = allImages[mem];\r\n    }\r\n    return temp;\r\n  }\r\n\r\n  function getAllImages() public view returns (Image[] memory) {\r\n    return allImages;\r\n  }\r\n\r\n  function getUser() public view returns (User memory){\r\n    return users[msg.sender];\r\n  }\r\n\r\n  function setUser(string memory _name, string memory _lastname, string memory _username) public {\r\n    users[msg.sender].name = _name;\r\n    users[msg.sender].lastname = _lastname;\r\n    users[msg.sender].username = _username;\r\n  }\r\n}\r\n",
  "sourcePath": "C:/Users/Stjepan/Desktop/PixelChain/contracts/IPFSImageStore.sol",
  "compiler": {
    "name": "solc",
    "version": "0.5.16+commit.9c3226ce.Emscripten.clang"
  },
  "schemaVersion": "3.3.3",
  "updatedAt": "2021-02-06T16:56:32.959Z",
  "networkType": "ethereum",
  "devdoc": {
    "methods": {}
  },
  "userdoc": {
    "methods": {}
  }
}