{
  "contractName": "IPFSImageStore",
  "abi": [
    {
      "inputs": [],
      "payable": false,
      "stateMutability": "nonpayable",
      "type": "constructor"
    },
    {
      "constant": false,
      "inputs": [
        {
          "internalType": "string",
          "name": "_original",
          "type": "string"
        },
        {
          "internalType": "string",
          "name": "_reported",
          "type": "string"
        }
      ],
      "name": "addReport",
      "outputs": [],
      "payable": false,
      "stateMutability": "nonpayable",
      "type": "function"
    },
    {
      "constant": true,
      "inputs": [],
      "name": "getReports",
      "outputs": [
        {
          "components": [
            {
              "internalType": "uint256",
              "name": "ID",
              "type": "uint256"
            },
            {
              "internalType": "string",
              "name": "original_cid",
              "type": "string"
            },
            {
              "internalType": "string",
              "name": "reported_cid",
              "type": "string"
            },
            {
              "internalType": "int256",
              "name": "votes",
              "type": "int256"
            }
          ],
          "internalType": "struct IPFSImageStore.Report[]",
          "name": "",
          "type": "tuple[]"
        }
      ],
      "payable": false,
      "stateMutability": "view",
      "type": "function"
    },
    {
      "constant": false,
      "inputs": [
        {
          "internalType": "uint256",
          "name": "_id",
          "type": "uint256"
        },
        {
          "internalType": "bool",
          "name": "vote",
          "type": "bool"
        }
      ],
      "name": "voteReport",
      "outputs": [
        {
          "internalType": "bool",
          "name": "",
          "type": "bool"
        }
      ],
      "payable": false,
      "stateMutability": "nonpayable",
      "type": "function"
    },
    {
      "constant": false,
      "inputs": [
        {
          "internalType": "string",
          "name": "_cid",
          "type": "string"
        }
      ],
      "name": "set",
      "outputs": [
        {
          "internalType": "bool",
          "name": "",
          "type": "bool"
        }
      ],
      "payable": false,
      "stateMutability": "nonpayable",
      "type": "function"
    },
    {
      "constant": true,
      "inputs": [],
      "name": "get",
      "outputs": [
        {
          "internalType": "string[]",
          "name": "",
          "type": "string[]"
        }
      ],
      "payable": false,
      "stateMutability": "view",
      "type": "function"
    },
    {
      "constant": true,
      "inputs": [],
      "name": "getAllImages",
      "outputs": [
        {
          "internalType": "string[]",
          "name": "",
          "type": "string[]"
        }
      ],
      "payable": false,
      "stateMutability": "view",
      "type": "function"
    },
    {
      "constant": true,
      "inputs": [],
      "name": "getUser",
      "outputs": [
        {
          "components": [
            {
              "internalType": "string",
              "name": "name",
              "type": "string"
            },
            {
              "internalType": "string",
              "name": "lastname",
              "type": "string"
            },
            {
              "internalType": "string",
              "name": "username",
              "type": "string"
            },
            {
              "internalType": "uint256[]",
              "name": "indexs",
              "type": "uint256[]"
            },
            {
              "internalType": "uint256[]",
              "name": "votedReports",
              "type": "uint256[]"
            }
          ],
          "internalType": "struct IPFSImageStore.User",
          "name": "",
          "type": "tuple"
        }
      ],
      "payable": false,
      "stateMutability": "view",
      "type": "function"
    },
    {
      "constant": false,
      "inputs": [
        {
          "internalType": "string",
          "name": "_name",
          "type": "string"
        },
        {
          "internalType": "string",
          "name": "_lastname",
          "type": "string"
        },
        {
          "internalType": "string",
          "name": "_username",
          "type": "string"
        }
      ],
      "name": "setUser",
      "outputs": [],
      "payable": false,
      "stateMutability": "nonpayable",
      "type": "function"
    }
  ],
  "bytecode": "0x608060405234801561001057600080fd5b5060006002819055506000600381905550611af0806100306000396000f3fe608060405234801561001057600080fd5b50600436106100885760003560e01c80637b7284fc1161005b5780637b7284fc14610113578063832880e714610131578063a3c86daf1461014f578063a7a17ad21461016d57610088565b80634ed3885e1461008d5780636b17b274146100bd5780636d4ce63c146100d95780637a3e0066146100f7575b600080fd5b6100a760048036036100a29190810190611401565b61019d565b6040516100b491906118af565b60405180910390f35b6100d760048036036100d291908101906114ae565b61027f565b005b6100e1610389565b6040516100ee919061186b565b60405180910390f35b610111600480360361010c9190810190611442565b610557565b005b61011b61067d565b604051610128919061186b565b60405180910390f35b610139610766565b60405161014691906118ca565b60405180910390f35b610157610a53565b604051610164919061188d565b60405180910390f35b61018760048036036101829190810190611545565b610c0a565b60405161019491906118af565b60405180910390f35b60006101a882610e3c565b156102755760008290806001815401808255809150509060018203906000526020600020016000909192909190915090805190602001906101ea9291906111e7565b5050600460003373ffffffffffffffffffffffffffffffffffffffff1673ffffffffffffffffffffffffffffffffffffffff16815260200190815260200160002060030160025490806001815401808255809150509060018203906000526020600020016000909192909190915055506002600081548092919060010191905055506001905061027a565b600090505b919050565b82600460003373ffffffffffffffffffffffffffffffffffffffff1673ffffffffffffffffffffffffffffffffffffffff16815260200190815260200160002060000190805190602001906102d59291906111e7565b5081600460003373ffffffffffffffffffffffffffffffffffffffff1673ffffffffffffffffffffffffffffffffffffffff168152602001908152602001600020600101908051906020019061032c9291906111e7565b5080600460003373ffffffffffffffffffffffffffffffffffffffff1673ffffffffffffffffffffffffffffffffffffffff16815260200190815260200160002060020190805190602001906103839291906111e7565b50505050565b6060806002546040519080825280602002602001820160405280156103c257816020015b60608152602001906001900390816103ad5790505b5090506000600460003373ffffffffffffffffffffffffffffffffffffffff1673ffffffffffffffffffffffffffffffffffffffff168152602001908152602001600020600301805490509050600080600090505b8281101561054d57600460003373ffffffffffffffffffffffffffffffffffffffff1673ffffffffffffffffffffffffffffffffffffffff168152602001908152602001600020600301818154811061046c57fe5b906000526020600020015491506000828154811061048657fe5b906000526020600020018054600181600116156101000203166002900480601f0160208091040260200160405190810160405280929190818152602001828054600181600116156101000203166002900480156105245780601f106104f957610100808354040283529160200191610524565b820191906000526020600020905b81548152906001019060200180831161050757829003601f168201915b505050505084828151811061053557fe5b60200260200101819052508080600101915050610417565b5082935050505090565b6001604051806080016040528060035481526020018481526020018381526020016001815250908060018154018082558091505090600182039060005260206000209060040201600090919290919091506000820151816000015560208201518160010190805190602001906105ce929190611267565b5060408201518160020190805190602001906105eb929190611267565b5060608201518160030155505050600460003373ffffffffffffffffffffffffffffffffffffffff1673ffffffffffffffffffffffffffffffffffffffff16815260200190815260200160002060040160035490806001815401808255809150509060018203906000526020600020016000909192909190915055506003600081548092919060010191905055505050565b60606000805480602002602001604051908101604052809291908181526020016000905b8282101561075d578382906000526020600020018054600181600116156101000203166002900480601f0160208091040260200160405190810160405280929190818152602001828054600181600116156101000203166002900480156107495780601f1061071e57610100808354040283529160200191610749565b820191906000526020600020905b81548152906001019060200180831161072c57829003601f168201915b5050505050815260200190600101906106a1565b50505050905090565b61076e6112e7565b600460003373ffffffffffffffffffffffffffffffffffffffff1673ffffffffffffffffffffffffffffffffffffffff1681526020019081526020016000206040518060a0016040529081600082018054600181600116156101000203166002900480601f0160208091040260200160405190810160405280929190818152602001828054600181600116156101000203166002900480156108515780601f1061082657610100808354040283529160200191610851565b820191906000526020600020905b81548152906001019060200180831161083457829003601f168201915b50505050508152602001600182018054600181600116156101000203166002900480601f0160208091040260200160405190810160405280929190818152602001828054600181600116156101000203166002900480156108f35780601f106108c8576101008083540402835291602001916108f3565b820191906000526020600020905b8154815290600101906020018083116108d657829003601f168201915b50505050508152602001600282018054600181600116156101000203166002900480601f0160208091040260200160405190810160405280929190818152602001828054600181600116156101000203166002900480156109955780601f1061096a57610100808354040283529160200191610995565b820191906000526020600020905b81548152906001019060200180831161097857829003601f168201915b50505050508152602001600382018054806020026020016040519081016040528092919081815260200182805480156109ed57602002820191906000526020600020905b8154815260200190600101908083116109d9575b5050505050815260200160048201805480602002602001604051908101604052809291908181526020018280548015610a4557602002820191906000526020600020905b815481526020019060010190808311610a31575b505050505081525050905090565b60606001805480602002602001604051908101604052809291908181526020016000905b82821015610c01578382906000526020600020906004020160405180608001604052908160008201548152602001600182018054600181600116156101000203166002900480601f016020809104026020016040519081016040528092919081815260200182805460018160011615610100020316600290048015610b3d5780601f10610b1257610100808354040283529160200191610b3d565b820191906000526020600020905b815481529060010190602001808311610b2057829003601f168201915b50505050508152602001600282018054600181600116156101000203166002900480601f016020809104026020016040519081016040528092919081815260200182805460018160011615610100020316600290048015610bdf5780601f10610bb457610100808354040283529160200191610bdf565b820191906000526020600020905b815481529060010190602001808311610bc257829003601f168201915b5050505050815260200160038201548152505081526020019060010190610a77565b50505050905090565b600080600090505b600460003373ffffffffffffffffffffffffffffffffffffffff1673ffffffffffffffffffffffffffffffffffffffff16815260200190815260200160002060040180549050811015610cdc576000600460003373ffffffffffffffffffffffffffffffffffffffff1673ffffffffffffffffffffffffffffffffffffffff1681526020019081526020016000206004018281548110610cae57fe5b9060005260206000200154905084811415610cce57600092505050610e36565b508080600101915050610c12565b508115610d8e5760018381548110610cf057fe5b906000526020600020906004020160030160008154809291906001019190505550600460003373ffffffffffffffffffffffffffffffffffffffff1673ffffffffffffffffffffffffffffffffffffffff168152602001908152602001600020600401839080600181540180825580915050906001820390600052602060002001600090919290919091505550610d85610f3f565b60019050610e36565b60018381548110610d9b57fe5b90600052602060002090600402016003016000815480929190600190039190505550600460003373ffffffffffffffffffffffffffffffffffffffff1673ffffffffffffffffffffffffffffffffffffffff168152602001908152602001600020600401839080600181540180825580915050906001820390600052602060002001600090919290919091505550610e31610f3f565b600190505b92915050565b6000606060008090505b600080549050811015610f335760008181548110610e6057fe5b906000526020600020018054600181600116156101000203166002900480601f016020809104026020016040519081016040528092919081815260200182805460018160011615610100020316600290048015610efe5780601f10610ed357610100808354040283529160200191610efe565b820191906000526020600020905b815481529060010190602001808311610ee157829003601f168201915b50505050509150838051906020012082805190602001201415610f2657600092505050610f3a565b8080600101915050610e46565b5060019150505b919050565b60008090505b60018054905081101561109357600260018281548110610f6157fe5b906000526020600020906004020160030154126110865761103760018281548110610f8857fe5b90600052602060002090600402016002018054600181600116156101000203166002900480601f01602080910402602001604051908101604052809291908181526020018280546001816001161561010002031660029004801561102d5780601f106110025761010080835404028352916020019161102d565b820191906000526020600020905b81548152906001019060200180831161101057829003601f168201915b5050505050611096565b6001818154811061104457fe5b906000526020600020906004020160008082016000905560018201600061106b9190611316565b60028201600061107b9190611316565b600382016000905550505b8080600101915050610f45565b50565b606060008090505b6000805490508110156111e257600081815481106110b857fe5b906000526020600020018054600181600116156101000203166002900480601f0160208091040260200160405190810160405280929190818152602001828054600181600116156101000203166002900480156111565780601f1061112b57610100808354040283529160200191611156565b820191906000526020600020905b81548152906001019060200180831161113957829003601f168201915b505050505091508280519060200120828051906020012014156111d5576040518060400160405280600981526020017f436f707952696768740000000000000000000000000000000000000000000000815250600082815481106111b657fe5b9060005260206000200190805190602001906111d39291906111e7565b505b808060010191505061109e565b505050565b828054600181600116156101000203166002900490600052602060002090601f016020900481019282601f1061122857805160ff1916838001178555611256565b82800160010185558215611256579182015b8281111561125557825182559160200191906001019061123a565b5b509050611263919061135e565b5090565b828054600181600116156101000203166002900490600052602060002090601f016020900481019282601f106112a857805160ff19168380011785556112d6565b828001600101855582156112d6579182015b828111156112d55782518255916020019190600101906112ba565b5b5090506112e3919061135e565b5090565b6040518060a0016040528060608152602001606081526020016060815260200160608152602001606081525090565b50805460018160011615610100020316600290046000825580601f1061133c575061135b565b601f01602090049060005260206000209081019061135a919061135e565b5b50565b61138091905b8082111561137c576000816000905550600101611364565b5090565b90565b60008135905061139281611a7f565b92915050565b600082601f8301126113a957600080fd5b81356113bc6113b782611919565b6118ec565b915080825260208301602083018583830111156113d857600080fd5b6113e3838284611a2c565b50505092915050565b6000813590506113fb81611a96565b92915050565b60006020828403121561141357600080fd5b600082013567ffffffffffffffff81111561142d57600080fd5b61143984828501611398565b91505092915050565b6000806040838503121561145557600080fd5b600083013567ffffffffffffffff81111561146f57600080fd5b61147b85828601611398565b925050602083013567ffffffffffffffff81111561149857600080fd5b6114a485828601611398565b9150509250929050565b6000806000606084860312156114c357600080fd5b600084013567ffffffffffffffff8111156114dd57600080fd5b6114e986828701611398565b935050602084013567ffffffffffffffff81111561150657600080fd5b61151286828701611398565b925050604084013567ffffffffffffffff81111561152f57600080fd5b61153b86828701611398565b9150509250925092565b6000806040838503121561155857600080fd5b6000611566858286016113ec565b925050602061157785828601611383565b9150509250929050565b600061158d8383611727565b905092915050565b60006115a18383611760565b905092915050565b60006115b5838361185c565b60208301905092915050565b60006115cc82611975565b6115d681856119c8565b9350836020820285016115e885611945565b8060005b8581101561162457848403895281516116058582611581565b9450611610836119a1565b925060208a019950506001810190506115ec565b50829750879550505050505092915050565b600061164182611980565b61164b81856119d9565b93508360208202850161165d85611955565b8060005b85811015611699578484038952815161167a8582611595565b9450611685836119ae565b925060208a01995050600181019050611661565b50829750879550505050505092915050565b60006116b68261198b565b6116c081856119ea565b93506116cb83611965565b8060005b838110156116fc5781516116e388826115a9565b97506116ee836119bb565b9250506001810190506116cf565b5085935050505092915050565b61171281611a0c565b82525050565b61172181611a18565b82525050565b600061173282611996565b61173c81856119fb565b935061174c818560208601611a3b565b61175581611a6e565b840191505092915050565b6000608083016000830151611778600086018261185c565b50602083015184820360208601526117908282611727565b915050604083015184820360408601526117aa8282611727565b91505060608301516117bf6060860182611718565b508091505092915050565b600060a08301600083015184820360008601526117e78282611727565b915050602083015184820360208601526118018282611727565b9150506040830151848203604086015261181b8282611727565b9150506060830151848203606086015261183582826116ab565b9150506080830151848203608086015261184f82826116ab565b9150508091505092915050565b61186581611a22565b82525050565b6000602082019050818103600083015261188581846115c1565b905092915050565b600060208201905081810360008301526118a78184611636565b905092915050565b60006020820190506118c46000830184611709565b92915050565b600060208201905081810360008301526118e481846117ca565b905092915050565b6000604051905081810181811067ffffffffffffffff8211171561190f57600080fd5b8060405250919050565b600067ffffffffffffffff82111561193057600080fd5b601f19601f8301169050602081019050919050565b6000819050602082019050919050565b6000819050602082019050919050565b6000819050602082019050919050565b600081519050919050565b600081519050919050565b600081519050919050565b600081519050919050565b6000602082019050919050565b6000602082019050919050565b6000602082019050919050565b600082825260208201905092915050565b600082825260208201905092915050565b600082825260208201905092915050565b600082825260208201905092915050565b60008115159050919050565b6000819050919050565b6000819050919050565b82818337600083830152505050565b60005b83811015611a59578082015181840152602081019050611a3e565b83811115611a68576000848401525b50505050565b6000601f19601f8301169050919050565b611a8881611a0c565b8114611a9357600080fd5b50565b611a9f81611a22565b8114611aaa57600080fd5b5056fea365627a7a723158203c773db031211ee863b4dfbdbec2431ced36c56bcda5fef3091a42968867c34c6c6578706572696d656e74616cf564736f6c63430005100040",
  "source": "// SPDX-License-Identifier: MIT\r\npragma experimental ABIEncoderV2;\r\n\r\ncontract IPFSImageStore {\r\n  string[] allImages;\r\n  Report[] reports;\r\n  uint idx;\r\n  uint reportId;\r\n\r\n  struct Report{\r\n    uint ID;\r\n    string original_cid;\r\n    string reported_cid;\r\n    int votes;\r\n  }\r\n\r\n  struct User{\r\n    string name;\r\n    string lastname;\r\n    string username;\r\n    uint[] indexs;\r\n    uint[] votedReports;\r\n  }\r\n\r\n  mapping(address => User) users;\r\n\r\n  constructor() public {\r\n    idx = 0;\r\n    reportId = 0;\r\n  }\r\n\r\n  function addReport(string memory _original, string memory _reported) public {\r\n    reports.push(Report(reportId, _original, _reported, 1));\r\n    users[msg.sender].votedReports.push(reportId);\r\n    reportId++;\r\n  }\r\n  \r\n  function getReports() public view returns(Report[] memory) {\r\n    return reports;\r\n  }\r\n  \r\n  function voteReport(uint _id, bool vote) public returns(bool) {\r\n      for(uint i = 0; i < users[msg.sender].votedReports.length; i++){\r\n          uint id = users[msg.sender].votedReports[i];\r\n          if(id == _id){\r\n              return false;\r\n          }\r\n      }\r\n      if(vote){\r\n          reports[_id].votes++;\r\n          users[msg.sender].votedReports.push(_id);\r\n          checkReports();\r\n          return true;\r\n      }else{\r\n          reports[_id].votes--;\r\n          users[msg.sender].votedReports.push(_id);\r\n          checkReports();\r\n          return true;\r\n      }\r\n      \r\n  }\r\n\r\n  function checkReports() private {\r\n    for(uint i = 0; i < reports.length;i++){\r\n      if(reports[i].votes >= 2){\r\n        deleteImage(reports[i].reported_cid);\r\n        delete reports[i];\r\n      }\r\n    }\r\n  }\r\n  \r\n  \r\n  function deleteImage(string memory _cid) private{\r\n    string memory mem;\r\n    for(uint i = 0; i < allImages.length; i++){\r\n      mem = allImages[i];\r\n      if(keccak256(bytes(mem)) == keccak256(bytes(_cid))){\r\n        allImages[i] = \"CopyRight\";\r\n      }\r\n    }\r\n  }\r\n  \r\n  function checkImage(string memory _cid) private view returns(bool){\r\n      string memory mem;\r\n      for(uint i = 0; i < allImages.length;i++){\r\n        mem = allImages[i];\r\n        if(keccak256(bytes(mem)) == keccak256(bytes(_cid))){\r\n            return false;\r\n        }\r\n      }\r\n      return true;\r\n  }\r\n\r\n  function set(string memory _cid) public returns(bool){\r\n     if(checkImage(_cid)){\r\n         allImages.push(_cid);\r\n         users[msg.sender].indexs.push(idx);\r\n        idx++;\r\n        return true;\r\n     }\r\n     return false;\r\n  }\r\n\r\n  function get() public view returns (string[] memory){\r\n    string[] memory temp = new string[](idx);\r\n    uint idxLength = users[msg.sender].indexs.length;\r\n    uint mem;\r\n    for(uint i = 0; i < idxLength; i++){\r\n      mem = users[msg.sender].indexs[i];\r\n      temp[i] = allImages[mem];\r\n    }\r\n    return temp;\r\n  }\r\n\r\n  function getAllImages() public view returns (string[] memory) {\r\n    return allImages;\r\n  }\r\n\r\n  function getUser() public view returns (User memory){\r\n    return users[msg.sender];\r\n  }\r\n\r\n  function setUser(string memory _name, string memory _lastname, string memory _username) public {\r\n    users[msg.sender].name = _name;\r\n    users[msg.sender].lastname = _lastname;\r\n    users[msg.sender].username = _username;\r\n  }\r\n\r\n}\r\n",
  "sourcePath": "C:/Users/Stjepan/Desktop/PixelChain/contracts/IPFSImageStore.sol",
  "compiler": {
    "name": "solc",
    "version": "0.5.16+commit.9c3226ce.Emscripten.clang"
  },
  "schemaVersion": "3.3.3",
  "updatedAt": "2021-02-01T12:26:48.535Z",
  "networkType": "ethereum",
  "devdoc": {
    "methods": {}
  },
  "userdoc": {
    "methods": {}
  }
}